{
  "contractName": "nvotingContract",
  "abi": [
    {
      "inputs": [],
      "stateMutability": "nonpayable",
      "type": "constructor"
    },
    {
      "anonymous": false,
      "inputs": [
        {
          "indexed": true,
          "internalType": "uint256",
          "name": "_candidateId",
          "type": "uint256"
        }
      ],
      "name": "votedEvent",
      "type": "event"
    },
    {
      "inputs": [
        {
          "internalType": "uint256",
          "name": "",
          "type": "uint256"
        }
      ],
      "name": "candidateArray",
      "outputs": [
        {
          "internalType": "uint256",
          "name": "id",
          "type": "uint256"
        },
        {
          "internalType": "string",
          "name": "name",
          "type": "string"
        },
        {
          "internalType": "uint256",
          "name": "voteCount",
          "type": "uint256"
        }
      ],
      "stateMutability": "view",
      "type": "function",
      "constant": true
    },
    {
      "inputs": [
        {
          "internalType": "uint256",
          "name": "",
          "type": "uint256"
        }
      ],
      "name": "candidates",
      "outputs": [
        {
          "internalType": "uint256",
          "name": "id",
          "type": "uint256"
        },
        {
          "internalType": "string",
          "name": "name",
          "type": "string"
        },
        {
          "internalType": "uint256",
          "name": "voteCount",
          "type": "uint256"
        }
      ],
      "stateMutability": "view",
      "type": "function",
      "constant": true
    },
    {
      "inputs": [],
      "name": "candidatesCount",
      "outputs": [
        {
          "internalType": "uint256",
          "name": "",
          "type": "uint256"
        }
      ],
      "stateMutability": "view",
      "type": "function",
      "constant": true
    },
    {
      "inputs": [],
      "name": "owner",
      "outputs": [
        {
          "internalType": "address",
          "name": "",
          "type": "address"
        }
      ],
      "stateMutability": "view",
      "type": "function",
      "constant": true
    },
    {
      "inputs": [
        {
          "internalType": "address",
          "name": "",
          "type": "address"
        }
      ],
      "name": "voters",
      "outputs": [
        {
          "internalType": "bool",
          "name": "",
          "type": "bool"
        }
      ],
      "stateMutability": "view",
      "type": "function",
      "constant": true
    },
    {
      "inputs": [
        {
          "internalType": "string",
          "name": "_name",
          "type": "string"
        }
      ],
      "name": "addCandidate",
      "outputs": [],
      "stateMutability": "nonpayable",
      "type": "function"
    },
    {
      "inputs": [
        {
          "internalType": "uint256",
          "name": "_candidateId",
          "type": "uint256"
        }
      ],
      "name": "vote",
      "outputs": [],
      "stateMutability": "nonpayable",
      "type": "function"
    },
    {
      "inputs": [],
      "name": "getCandidates",
      "outputs": [
        {
          "components": [
            {
              "internalType": "uint256",
              "name": "id",
              "type": "uint256"
            },
            {
              "internalType": "string",
              "name": "name",
              "type": "string"
            },
            {
              "internalType": "uint256",
              "name": "voteCount",
              "type": "uint256"
            }
          ],
          "internalType": "struct nvotingContract.Candidate[]",
          "name": "",
          "type": "tuple[]"
        }
      ],
      "stateMutability": "view",
      "type": "function",
      "constant": true
    }
  ],
  "bytecode": "0x60806040523480156200001157600080fd5b5033600460006101000a81548173ffffffffffffffffffffffffffffffffffffffff021916908373ffffffffffffffffffffffffffffffffffffffff160217905550620000996040518060400160405280600e81526020017f53616d61727468204768616e7465000000000000000000000000000000000000815250620000e560201b60201c565b620000df6040518060400160405280600d81526020017f4b616e6973686b204b756d617200000000000000000000000000000000000000815250620000e560201b60201c565b62000613565b600460009054906101000a900473ffffffffffffffffffffffffffffffffffffffff1673ffffffffffffffffffffffffffffffffffffffff163373ffffffffffffffffffffffffffffffffffffffff16146200014057600080fd5b6003600081548092919062000155906200026f565b9190505550604051806060016040528060035481526020018281526020016000815250600160006003548152602001908152602001600020600082015181600001556020820151816001019081620001ae91906200052c565b5060408201518160020155905050600260405180606001604052806003548152602001838152602001600081525090806001815401808255809150506001900390600052602060002090600302016000909190919091506000820151816000015560208201518160010190816200022691906200052c565b5060408201518160020155505050565b7f4e487b7100000000000000000000000000000000000000000000000000000000600052601160045260246000fd5b6000819050919050565b60006200027c8262000265565b91507fffffffffffffffffffffffffffffffffffffffffffffffffffffffffffffffff8203620002b157620002b062000236565b5b600182019050919050565b600081519050919050565b7f4e487b7100000000000000000000000000000000000000000000000000000000600052604160045260246000fd5b7f4e487b7100000000000000000000000000000000000000000000000000000000600052602260045260246000fd5b600060028204905060018216806200033e57607f821691505b602082108103620003545762000353620002f6565b5b50919050565b60008190508160005260206000209050919050565b60006020601f8301049050919050565b600082821b905092915050565b600060088302620003be7fffffffffffffffffffffffffffffffffffffffffffffffffffffffffffffffff826200037f565b620003ca86836200037f565b95508019841693508086168417925050509392505050565b6000819050919050565b60006200040d62000407620004018462000265565b620003e2565b62000265565b9050919050565b6000819050919050565b6200042983620003ec565b62000441620004388262000414565b8484546200038c565b825550505050565b600090565b6200045862000449565b620004658184846200041e565b505050565b5b818110156200048d57620004816000826200044e565b6001810190506200046b565b5050565b601f821115620004dc57620004a6816200035a565b620004b1846200036f565b81016020851015620004c1578190505b620004d9620004d0856200036f565b8301826200046a565b50505b505050565b600082821c905092915050565b60006200050160001984600802620004e1565b1980831691505092915050565b60006200051c8383620004ee565b9150826002028217905092915050565b6200053782620002bc565b67ffffffffffffffff811115620005535762000552620002c7565b5b6200055f825462000325565b6200056c82828562000491565b600060209050601f831160018114620005a457600084156200058f578287015190505b6200059b85826200050e565b8655506200060b565b601f198416620005b4866200035a565b60005b82811015620005de57848901518255600182019150602085019450602081019050620005b7565b86831015620005fe5784890151620005fa601f891682620004ee565b8355505b6001600288020188555050505b505050505050565b610fd680620006236000396000f3fe608060405234801561001057600080fd5b50600436106100885760003560e01c806335a893a11161005b57806335a893a114610117578063462e91ec146101495780638da5cb5b14610165578063a3ec138d1461018357610088565b80630121b93f1461008d57806306a49fce146100a95780632d35a8a2146100c75780633477ee2e146100e5575b600080fd5b6100a760048036038101906100a29190610730565b6101b3565b005b6100b16102d7565b6040516100be919061090e565b60405180910390f35b6100cf6103dc565b6040516100dc919061093f565b60405180910390f35b6100ff60048036038101906100fa9190610730565b6103e2565b60405161010e939291906109a4565b60405180910390f35b610131600480360381019061012c9190610730565b610494565b604051610140939291906109a4565b60405180910390f35b610163600480360381019061015e9190610b17565b610556565b005b61016d6106a0565b60405161017a9190610ba1565b60405180910390f35b61019d60048036038101906101989190610be8565b6106c6565b6040516101aa9190610c30565b60405180910390f35b6000803373ffffffffffffffffffffffffffffffffffffffff1673ffffffffffffffffffffffffffffffffffffffff16815260200190815260200160002060009054906101000a900460ff161561020957600080fd5b60008111801561021b57506003548111155b61022457600080fd5b60016000803373ffffffffffffffffffffffffffffffffffffffff1673ffffffffffffffffffffffffffffffffffffffff16815260200190815260200160002060006101000a81548160ff0219169083151502179055506001600082815260200190815260200160002060020160008154809291906102a290610c7a565b9190505550807ffff3c900d938d21d0990d786e819f29b8d05c1ef587b462b939609625b684b1660405160405180910390a250565b60606002805480602002602001604051908101604052809291908181526020016000905b828210156103d357838290600052602060002090600302016040518060600160405290816000820154815260200160018201805461033890610cf1565b80601f016020809104026020016040519081016040528092919081815260200182805461036490610cf1565b80156103b15780601f10610386576101008083540402835291602001916103b1565b820191906000526020600020905b81548152906001019060200180831161039457829003601f168201915b50505050508152602001600282015481525050815260200190600101906102fb565b50505050905090565b60035481565b600160205280600052604060002060009150905080600001549080600101805461040b90610cf1565b80601f016020809104026020016040519081016040528092919081815260200182805461043790610cf1565b80156104845780601f1061045957610100808354040283529160200191610484565b820191906000526020600020905b81548152906001019060200180831161046757829003601f168201915b5050505050908060020154905083565b600281815481106104a457600080fd5b90600052602060002090600302016000915090508060000154908060010180546104cd90610cf1565b80601f01602080910402602001604051908101604052809291908181526020018280546104f990610cf1565b80156105465780601f1061051b57610100808354040283529160200191610546565b820191906000526020600020905b81548152906001019060200180831161052957829003601f168201915b5050505050908060020154905083565b600460009054906101000a900473ffffffffffffffffffffffffffffffffffffffff1673ffffffffffffffffffffffffffffffffffffffff163373ffffffffffffffffffffffffffffffffffffffff16146105b057600080fd5b600360008154809291906105c390610c7a565b919050555060405180606001604052806003548152602001828152602001600081525060016000600354815260200190815260200160002060008201518160000155602082015181600101908161061a9190610ece565b5060408201518160020155905050600260405180606001604052806003548152602001838152602001600081525090806001815401808255809150506001900390600052602060002090600302016000909190919091506000820151816000015560208201518160010190816106909190610ece565b5060408201518160020155505050565b600460009054906101000a900473ffffffffffffffffffffffffffffffffffffffff1681565b60006020528060005260406000206000915054906101000a900460ff1681565b6000604051905090565b600080fd5b600080fd5b6000819050919050565b61070d816106fa565b811461071857600080fd5b50565b60008135905061072a81610704565b92915050565b600060208284031215610746576107456106f0565b5b60006107548482850161071b565b91505092915050565b600081519050919050565b600082825260208201905092915050565b6000819050602082019050919050565b610792816106fa565b82525050565b600081519050919050565b600082825260208201905092915050565b60005b838110156107d25780820151818401526020810190506107b7565b60008484015250505050565b6000601f19601f8301169050919050565b60006107fa82610798565b61080481856107a3565b93506108148185602086016107b4565b61081d816107de565b840191505092915050565b60006060830160008301516108406000860182610789565b506020830151848203602086015261085882826107ef565b915050604083015161086d6040860182610789565b508091505092915050565b60006108848383610828565b905092915050565b6000602082019050919050565b60006108a48261075d565b6108ae8185610768565b9350836020820285016108c085610779565b8060005b858110156108fc57848403895281516108dd8582610878565b94506108e88361088c565b925060208a019950506001810190506108c4565b50829750879550505050505092915050565b600060208201905081810360008301526109288184610899565b905092915050565b610939816106fa565b82525050565b60006020820190506109546000830184610930565b92915050565b600082825260208201905092915050565b600061097682610798565b610980818561095a565b93506109908185602086016107b4565b610999816107de565b840191505092915050565b60006060820190506109b96000830186610930565b81810360208301526109cb818561096b565b90506109da6040830184610930565b949350505050565b600080fd5b600080fd5b7f4e487b7100000000000000000000000000000000000000000000000000000000600052604160045260246000fd5b610a24826107de565b810181811067ffffffffffffffff82111715610a4357610a426109ec565b5b80604052505050565b6000610a566106e6565b9050610a628282610a1b565b919050565b600067ffffffffffffffff821115610a8257610a816109ec565b5b610a8b826107de565b9050602081019050919050565b82818337600083830152505050565b6000610aba610ab584610a67565b610a4c565b905082815260208101848484011115610ad657610ad56109e7565b5b610ae1848285610a98565b509392505050565b600082601f830112610afe57610afd6109e2565b5b8135610b0e848260208601610aa7565b91505092915050565b600060208284031215610b2d57610b2c6106f0565b5b600082013567ffffffffffffffff811115610b4b57610b4a6106f5565b5b610b5784828501610ae9565b91505092915050565b600073ffffffffffffffffffffffffffffffffffffffff82169050919050565b6000610b8b82610b60565b9050919050565b610b9b81610b80565b82525050565b6000602082019050610bb66000830184610b92565b92915050565b610bc581610b80565b8114610bd057600080fd5b50565b600081359050610be281610bbc565b92915050565b600060208284031215610bfe57610bfd6106f0565b5b6000610c0c84828501610bd3565b91505092915050565b60008115159050919050565b610c2a81610c15565b82525050565b6000602082019050610c456000830184610c21565b92915050565b7f4e487b7100000000000000000000000000000000000000000000000000000000600052601160045260246000fd5b6000610c85826106fa565b91507fffffffffffffffffffffffffffffffffffffffffffffffffffffffffffffffff8203610cb757610cb6610c4b565b5b600182019050919050565b7f4e487b7100000000000000000000000000000000000000000000000000000000600052602260045260246000fd5b60006002820490506001821680610d0957607f821691505b602082108103610d1c57610d1b610cc2565b5b50919050565b60008190508160005260206000209050919050565b60006020601f8301049050919050565b600082821b905092915050565b600060088302610d847fffffffffffffffffffffffffffffffffffffffffffffffffffffffffffffffff82610d47565b610d8e8683610d47565b95508019841693508086168417925050509392505050565b6000819050919050565b6000610dcb610dc6610dc1846106fa565b610da6565b6106fa565b9050919050565b6000819050919050565b610de583610db0565b610df9610df182610dd2565b848454610d54565b825550505050565b600090565b610e0e610e01565b610e19818484610ddc565b505050565b5b81811015610e3d57610e32600082610e06565b600181019050610e1f565b5050565b601f821115610e8257610e5381610d22565b610e5c84610d37565b81016020851015610e6b578190505b610e7f610e7785610d37565b830182610e1e565b50505b505050565b600082821c905092915050565b6000610ea560001984600802610e87565b1980831691505092915050565b6000610ebe8383610e94565b9150826002028217905092915050565b610ed782610798565b67ffffffffffffffff811115610ef057610eef6109ec565b5b610efa8254610cf1565b610f05828285610e41565b600060209050601f831160018114610f385760008415610f26578287015190505b610f308582610eb2565b865550610f98565b601f198416610f4686610d22565b60005b82811015610f6e57848901518255600182019150602085019450602081019050610f49565b86831015610f8b5784890151610f87601f891682610e94565b8355505b6001600288020188555050505b50505050505056fea2646970667358221220c6f59d0fa160abdbb10c1a681cacbcde4f0da1a4450d8d7ad3787ab85359897264736f6c63430008110033",
  "immutableReferences": {},
  "source": "// SPDX-License-Identifier: UNLICENCED\r\npragma solidity >=0.4.22 <0.9.0;\r\n\r\ncontract nvotingContract {\r\n    \r\n    struct Candidate {\r\n        uint id;\r\n        string name;\r\n        uint voteCount;\r\n    }\r\n\r\n    mapping(address => bool) public voters;\r\n\r\n    mapping(uint => Candidate) public candidates;\r\n    Candidate[] public candidateArray; \r\n    uint public candidatesCount;\r\n\r\n    event votedEvent (\r\n        uint indexed _candidateId\r\n    );\r\n\r\n    address public owner;\r\n    constructor () {\r\n        owner = msg.sender;\r\n        addCandidate(\"Samarth Ghante\");\r\n        addCandidate(\"Kanishk Kumar\");\r\n    }\r\n\r\n    function addCandidate(string memory _name) public {\r\n        require(msg.sender == owner);\r\n        candidatesCount++;\r\n        candidates[candidatesCount] = Candidate(candidatesCount, _name, 0);\r\n        candidateArray.push(Candidate(candidatesCount, _name, 0)); \r\n    }\r\n\r\n    function vote (uint _candidateId) public {\r\n        require(!voters[msg.sender]);\r\n        require(_candidateId > 0 && _candidateId <= candidatesCount);\r\n        voters[msg.sender] = true;\r\n        candidates[_candidateId].voteCount ++;\r\n        emit votedEvent(_candidateId);\r\n    }\r\n\r\n    function getCandidates() public view returns (Candidate[] memory) {\r\n        return candidateArray;\r\n    }\r\n}\r\n",
  "sourcePath": "C:\\Users\\A\\Desktop\\GFG\\SmartContract\\contracts\\nvotingContract.sol",
  "compiler": {
    "name": "solc",
    "version": "0.8.17+commit.8df45f5f.Emscripten.clang"
  },
  "schemaVersion": "3.4.16",
  "updatedAt": "2023-11-21T19:06:04.247Z",
  "networkType": "ethereum",
  "devdoc": {
    "kind": "dev",
    "methods": {},
    "version": 1
  },
  "userdoc": {
    "kind": "user",
    "methods": {},
    "version": 1
  }
}