{
  "contractName": "nvotingContract",
  "abi": [
    {
      "inputs": [],
      "stateMutability": "nonpayable",
      "type": "constructor"
    },
    {
      "anonymous": false,
      "inputs": [
        {
          "indexed": true,
          "internalType": "uint256",
          "name": "_candidateId",
          "type": "uint256"
        }
      ],
      "name": "votedEvent",
      "type": "event"
    },
    {
      "inputs": [
        {
          "internalType": "uint256",
          "name": "",
          "type": "uint256"
        }
      ],
      "name": "candidates",
      "outputs": [
        {
          "internalType": "uint256",
          "name": "id",
          "type": "uint256"
        },
        {
          "internalType": "string",
          "name": "name",
          "type": "string"
        },
        {
          "internalType": "uint256",
          "name": "voteCount",
          "type": "uint256"
        }
      ],
      "stateMutability": "view",
      "type": "function",
      "constant": true
    },
    {
      "inputs": [],
      "name": "candidatesCount",
      "outputs": [
        {
          "internalType": "uint256",
          "name": "",
          "type": "uint256"
        }
      ],
      "stateMutability": "view",
      "type": "function",
      "constant": true
    },
    {
      "inputs": [],
      "name": "owner",
      "outputs": [
        {
          "internalType": "address",
          "name": "",
          "type": "address"
        }
      ],
      "stateMutability": "view",
      "type": "function",
      "constant": true
    },
    {
      "inputs": [
        {
          "internalType": "address",
          "name": "",
          "type": "address"
        }
      ],
      "name": "voters",
      "outputs": [
        {
          "internalType": "bool",
          "name": "",
          "type": "bool"
        }
      ],
      "stateMutability": "view",
      "type": "function",
      "constant": true
    },
    {
      "inputs": [
        {
          "internalType": "string",
          "name": "_name",
          "type": "string"
        }
      ],
      "name": "addCandidate",
      "outputs": [],
      "stateMutability": "nonpayable",
      "type": "function"
    },
    {
      "inputs": [
        {
          "internalType": "uint256",
          "name": "_candidateId",
          "type": "uint256"
        }
      ],
      "name": "vote",
      "outputs": [],
      "stateMutability": "nonpayable",
      "type": "function"
    },
    {
      "inputs": [],
      "name": "getCandidates",
      "outputs": [
        {
          "components": [
            {
              "internalType": "uint256",
              "name": "id",
              "type": "uint256"
            },
            {
              "internalType": "string",
              "name": "name",
              "type": "string"
            },
            {
              "internalType": "uint256",
              "name": "voteCount",
              "type": "uint256"
            }
          ],
          "internalType": "struct nvotingContract.Candidate[]",
          "name": "",
          "type": "tuple[]"
        }
      ],
      "stateMutability": "view",
      "type": "function",
      "constant": true
    }
  ],
  "bytecode": "0x60806040523480156200001157600080fd5b5033600360006101000a81548173ffffffffffffffffffffffffffffffffffffffff021916908373ffffffffffffffffffffffffffffffffffffffff160217905550620000996040518060400160405280600e81526020017f53616d61727468204768616e7465000000000000000000000000000000000000815250620000e560201b60201c565b620000df6040518060400160405280600d81526020017f4b616e6973686b204b756d617200000000000000000000000000000000000000815250620000e560201b60201c565b6200059c565b600360009054906101000a900473ffffffffffffffffffffffffffffffffffffffff1673ffffffffffffffffffffffffffffffffffffffff163373ffffffffffffffffffffffffffffffffffffffff16146200014057600080fd5b600260008154809291906200015590620001f8565b9190505550604051806060016040528060025481526020018281526020016000815250600160006002548152602001908152602001600020600082015181600001556020820151816001019081620001ae9190620004b5565b506040820151816002015590505050565b7f4e487b7100000000000000000000000000000000000000000000000000000000600052601160045260246000fd5b6000819050919050565b60006200020582620001ee565b91507fffffffffffffffffffffffffffffffffffffffffffffffffffffffffffffffff82036200023a5762000239620001bf565b5b600182019050919050565b600081519050919050565b7f4e487b7100000000000000000000000000000000000000000000000000000000600052604160045260246000fd5b7f4e487b7100000000000000000000000000000000000000000000000000000000600052602260045260246000fd5b60006002820490506001821680620002c757607f821691505b602082108103620002dd57620002dc6200027f565b5b50919050565b60008190508160005260206000209050919050565b60006020601f8301049050919050565b600082821b905092915050565b600060088302620003477fffffffffffffffffffffffffffffffffffffffffffffffffffffffffffffffff8262000308565b62000353868362000308565b95508019841693508086168417925050509392505050565b6000819050919050565b600062000396620003906200038a84620001ee565b6200036b565b620001ee565b9050919050565b6000819050919050565b620003b28362000375565b620003ca620003c1826200039d565b84845462000315565b825550505050565b600090565b620003e1620003d2565b620003ee818484620003a7565b505050565b5b8181101562000416576200040a600082620003d7565b600181019050620003f4565b5050565b601f82111562000465576200042f81620002e3565b6200043a84620002f8565b810160208510156200044a578190505b620004626200045985620002f8565b830182620003f3565b50505b505050565b600082821c905092915050565b60006200048a600019846008026200046a565b1980831691505092915050565b6000620004a5838362000477565b9150826002028217905092915050565b620004c08262000245565b67ffffffffffffffff811115620004dc57620004db62000250565b5b620004e88254620002ae565b620004f58282856200041a565b600060209050601f8311600181146200052d576000841562000518578287015190505b62000524858262000497565b86555062000594565b601f1984166200053d86620002e3565b60005b82811015620005675784890151825560018201915060208501945060208101905062000540565b8683101562000587578489015162000583601f89168262000477565b8355505b6001600288020188555050505b505050505050565b610f5680620005ac6000396000f3fe608060405234801561001057600080fd5b506004361061007d5760003560e01c80633477ee2e1161005b5780633477ee2e146100da578063462e91ec1461010c5780638da5cb5b14610128578063a3ec138d146101465761007d565b80630121b93f1461008257806306a49fce1461009e5780632d35a8a2146100bc575b600080fd5b61009c6004803603810190610097919061064d565b610176565b005b6100a661029a565b6040516100b3919061082b565b60405180910390f35b6100c461040f565b6040516100d1919061085c565b60405180910390f35b6100f460048036038101906100ef919061064d565b610415565b604051610103939291906108c1565b60405180910390f35b61012660048036038101906101219190610a34565b6104c7565b005b61013061059c565b60405161013d9190610abe565b60405180910390f35b610160600480360381019061015b9190610b05565b6105c2565b60405161016d9190610b4d565b60405180910390f35b6000803373ffffffffffffffffffffffffffffffffffffffff1673ffffffffffffffffffffffffffffffffffffffff16815260200190815260200160002060009054906101000a900460ff16156101cc57600080fd5b6000811180156101de57506002548111155b6101e757600080fd5b60016000803373ffffffffffffffffffffffffffffffffffffffff1673ffffffffffffffffffffffffffffffffffffffff16815260200190815260200160002060006101000a81548160ff02191690831515021790555060016000828152602001908152602001600020600201600081548092919061026590610b97565b9190505550807ffff3c900d938d21d0990d786e819f29b8d05c1ef587b462b939609625b684b1660405160405180910390a250565b6060600060025467ffffffffffffffff8111156102ba576102b9610909565b5b6040519080825280602002602001820160405280156102f357816020015b6102e06105e2565b8152602001906001900390816102d85790505b5090506000600190505b600254811161040757600160008281526020019081526020016000206040518060600160405290816000820154815260200160018201805461033e90610c0e565b80601f016020809104026020016040519081016040528092919081815260200182805461036a90610c0e565b80156103b75780601f1061038c576101008083540402835291602001916103b7565b820191906000526020600020905b81548152906001019060200180831161039a57829003601f168201915b50505050508152602001600282015481525050826001836103d89190610c3f565b815181106103e9576103e8610c73565b5b602002602001018190525080806103ff90610b97565b9150506102fd565b508091505090565b60025481565b600160205280600052604060002060009150905080600001549080600101805461043e90610c0e565b80601f016020809104026020016040519081016040528092919081815260200182805461046a90610c0e565b80156104b75780601f1061048c576101008083540402835291602001916104b7565b820191906000526020600020905b81548152906001019060200180831161049a57829003601f168201915b5050505050908060020154905083565b600360009054906101000a900473ffffffffffffffffffffffffffffffffffffffff1673ffffffffffffffffffffffffffffffffffffffff163373ffffffffffffffffffffffffffffffffffffffff161461052157600080fd5b6002600081548092919061053490610b97565b919050555060405180606001604052806002548152602001828152602001600081525060016000600254815260200190815260200160002060008201518160000155602082015181600101908161058b9190610e4e565b506040820151816002015590505050565b600360009054906101000a900473ffffffffffffffffffffffffffffffffffffffff1681565b60006020528060005260406000206000915054906101000a900460ff1681565b60405180606001604052806000815260200160608152602001600081525090565b6000604051905090565b600080fd5b600080fd5b6000819050919050565b61062a81610617565b811461063557600080fd5b50565b60008135905061064781610621565b92915050565b6000602082840312156106635761066261060d565b5b600061067184828501610638565b91505092915050565b600081519050919050565b600082825260208201905092915050565b6000819050602082019050919050565b6106af81610617565b82525050565b600081519050919050565b600082825260208201905092915050565b60005b838110156106ef5780820151818401526020810190506106d4565b60008484015250505050565b6000601f19601f8301169050919050565b6000610717826106b5565b61072181856106c0565b93506107318185602086016106d1565b61073a816106fb565b840191505092915050565b600060608301600083015161075d60008601826106a6565b5060208301518482036020860152610775828261070c565b915050604083015161078a60408601826106a6565b508091505092915050565b60006107a18383610745565b905092915050565b6000602082019050919050565b60006107c18261067a565b6107cb8185610685565b9350836020820285016107dd85610696565b8060005b8581101561081957848403895281516107fa8582610795565b9450610805836107a9565b925060208a019950506001810190506107e1565b50829750879550505050505092915050565b6000602082019050818103600083015261084581846107b6565b905092915050565b61085681610617565b82525050565b6000602082019050610871600083018461084d565b92915050565b600082825260208201905092915050565b6000610893826106b5565b61089d8185610877565b93506108ad8185602086016106d1565b6108b6816106fb565b840191505092915050565b60006060820190506108d6600083018661084d565b81810360208301526108e88185610888565b90506108f7604083018461084d565b949350505050565b600080fd5b600080fd5b7f4e487b7100000000000000000000000000000000000000000000000000000000600052604160045260246000fd5b610941826106fb565b810181811067ffffffffffffffff821117156109605761095f610909565b5b80604052505050565b6000610973610603565b905061097f8282610938565b919050565b600067ffffffffffffffff82111561099f5761099e610909565b5b6109a8826106fb565b9050602081019050919050565b82818337600083830152505050565b60006109d76109d284610984565b610969565b9050828152602081018484840111156109f3576109f2610904565b5b6109fe8482856109b5565b509392505050565b600082601f830112610a1b57610a1a6108ff565b5b8135610a2b8482602086016109c4565b91505092915050565b600060208284031215610a4a57610a4961060d565b5b600082013567ffffffffffffffff811115610a6857610a67610612565b5b610a7484828501610a06565b91505092915050565b600073ffffffffffffffffffffffffffffffffffffffff82169050919050565b6000610aa882610a7d565b9050919050565b610ab881610a9d565b82525050565b6000602082019050610ad36000830184610aaf565b92915050565b610ae281610a9d565b8114610aed57600080fd5b50565b600081359050610aff81610ad9565b92915050565b600060208284031215610b1b57610b1a61060d565b5b6000610b2984828501610af0565b91505092915050565b60008115159050919050565b610b4781610b32565b82525050565b6000602082019050610b626000830184610b3e565b92915050565b7f4e487b7100000000000000000000000000000000000000000000000000000000600052601160045260246000fd5b6000610ba282610617565b91507fffffffffffffffffffffffffffffffffffffffffffffffffffffffffffffffff8203610bd457610bd3610b68565b5b600182019050919050565b7f4e487b7100000000000000000000000000000000000000000000000000000000600052602260045260246000fd5b60006002820490506001821680610c2657607f821691505b602082108103610c3957610c38610bdf565b5b50919050565b6000610c4a82610617565b9150610c5583610617565b9250828203905081811115610c6d57610c6c610b68565b5b92915050565b7f4e487b7100000000000000000000000000000000000000000000000000000000600052603260045260246000fd5b60008190508160005260206000209050919050565b60006020601f8301049050919050565b600082821b905092915050565b600060088302610d047fffffffffffffffffffffffffffffffffffffffffffffffffffffffffffffffff82610cc7565b610d0e8683610cc7565b95508019841693508086168417925050509392505050565b6000819050919050565b6000610d4b610d46610d4184610617565b610d26565b610617565b9050919050565b6000819050919050565b610d6583610d30565b610d79610d7182610d52565b848454610cd4565b825550505050565b600090565b610d8e610d81565b610d99818484610d5c565b505050565b5b81811015610dbd57610db2600082610d86565b600181019050610d9f565b5050565b601f821115610e0257610dd381610ca2565b610ddc84610cb7565b81016020851015610deb578190505b610dff610df785610cb7565b830182610d9e565b50505b505050565b600082821c905092915050565b6000610e2560001984600802610e07565b1980831691505092915050565b6000610e3e8383610e14565b9150826002028217905092915050565b610e57826106b5565b67ffffffffffffffff811115610e7057610e6f610909565b5b610e7a8254610c0e565b610e85828285610dc1565b600060209050601f831160018114610eb85760008415610ea6578287015190505b610eb08582610e32565b865550610f18565b601f198416610ec686610ca2565b60005b82811015610eee57848901518255600182019150602085019450602081019050610ec9565b86831015610f0b5784890151610f07601f891682610e14565b8355505b6001600288020188555050505b50505050505056fea264697066735822122034ea04fc995822c4256c037bfffb117215e7e7645b604760de8f0d2b9cbb81c064736f6c63430008110033",
  "immutableReferences": {},
  "source": "// SPDX-License-Identifier: UNLICENSED\r\npragma solidity >=0.4.22 <0.9.0;\r\n\r\ncontract nvotingContract {\r\n    \r\n    struct Candidate {\r\n        uint id;\r\n        string name;\r\n        uint voteCount;\r\n    }\r\n\r\n    mapping(address => bool) public voters;\r\n\r\n    mapping(uint => Candidate) public candidates;\r\n    uint public candidatesCount;\r\n\r\n    event votedEvent (\r\n        uint indexed _candidateId\r\n    );\r\n\r\n    address public owner;\r\n    constructor () {\r\n        owner = msg.sender;\r\n        addCandidate(\"Samarth Ghante\");\r\n        addCandidate(\"Kanishk Kumar\");\r\n    }\r\n\r\n    function addCandidate(string memory _name) public {\r\n        require(msg.sender == owner);\r\n        candidatesCount++;\r\n        candidates[candidatesCount] = Candidate(candidatesCount, _name, 0);\r\n    }\r\n\r\n    function vote(uint _candidateId) public {\r\n        require(!voters[msg.sender]);\r\n        require(_candidateId > 0 && _candidateId <= candidatesCount);\r\n        voters[msg.sender] = true;\r\n        candidates[_candidateId].voteCount++;\r\n        emit votedEvent(_candidateId);\r\n    }\r\n\r\n    function getCandidates() public view returns (Candidate[] memory) {\r\n        Candidate[] memory candidateArray = new Candidate[](candidatesCount);\r\n        for (uint i = 1; i <= candidatesCount; i++) {\r\n            candidateArray[i - 1] = candidates[i];\r\n        }\r\n        return candidateArray;\r\n    }\r\n}\r\n",
  "sourcePath": "C:\\Users\\A\\Desktop\\GFG\\SmartContract\\contracts\\nvotingContract.sol",
  "compiler": {
    "name": "solc",
    "version": "0.8.17+commit.8df45f5f.Emscripten.clang"
  },
  "schemaVersion": "3.4.16",
  "updatedAt": "2023-11-21T20:08:12.437Z",
  "networkType": "ethereum",
  "devdoc": {
    "kind": "dev",
    "methods": {},
    "version": 1
  },
  "userdoc": {
    "kind": "user",
    "methods": {},
    "version": 1
  }
}