{
  "contractName": "contractVoting",
  "abi": [
    {
      "inputs": [],
      "stateMutability": "nonpayable",
      "type": "constructor"
    },
    {
      "anonymous": false,
      "inputs": [
        {
          "indexed": true,
          "internalType": "uint256",
          "name": "_candidateId",
          "type": "uint256"
        }
      ],
      "name": "votedEvent",
      "type": "event"
    },
    {
      "inputs": [
        {
          "internalType": "uint256",
          "name": "",
          "type": "uint256"
        }
      ],
      "name": "candidates",
      "outputs": [
        {
          "internalType": "uint256",
          "name": "id",
          "type": "uint256"
        },
        {
          "internalType": "string",
          "name": "name",
          "type": "string"
        },
        {
          "internalType": "uint256",
          "name": "voteCount",
          "type": "uint256"
        }
      ],
      "stateMutability": "view",
      "type": "function",
      "constant": true
    },
    {
      "inputs": [],
      "name": "candidatesCount",
      "outputs": [
        {
          "internalType": "uint256",
          "name": "",
          "type": "uint256"
        }
      ],
      "stateMutability": "view",
      "type": "function",
      "constant": true
    },
    {
      "inputs": [
        {
          "internalType": "address",
          "name": "",
          "type": "address"
        }
      ],
      "name": "voters",
      "outputs": [
        {
          "internalType": "bool",
          "name": "",
          "type": "bool"
        }
      ],
      "stateMutability": "view",
      "type": "function",
      "constant": true
    },
    {
      "inputs": [
        {
          "internalType": "string",
          "name": "_name",
          "type": "string"
        }
      ],
      "name": "addCandidate",
      "outputs": [],
      "stateMutability": "nonpayable",
      "type": "function"
    },
    {
      "inputs": [
        {
          "internalType": "uint256",
          "name": "_candidateId",
          "type": "uint256"
        }
      ],
      "name": "vote",
      "outputs": [],
      "stateMutability": "nonpayable",
      "type": "function"
    },
    {
      "inputs": [
        {
          "internalType": "uint256",
          "name": "_candidateId",
          "type": "uint256"
        }
      ],
      "name": "getCandidateById",
      "outputs": [
        {
          "internalType": "uint256",
          "name": "",
          "type": "uint256"
        },
        {
          "internalType": "string",
          "name": "",
          "type": "string"
        },
        {
          "internalType": "uint256",
          "name": "",
          "type": "uint256"
        }
      ],
      "stateMutability": "view",
      "type": "function",
      "constant": true
    }
  ],
  "bytecode": "0x60806040523480156200001157600080fd5b50620000586040518060400160405280600e81526020017f53616d61727468204768616e74650000000000000000000000000000000000008152506200020260201b60201c565b6200009e6040518060400160405280600d81526020017f4b616e6973686b204b756d6172000000000000000000000000000000000000008152506200020260201b60201c565b620000e46040518060400160405280601081526020017f53687261767961204268616e64617279000000000000000000000000000000008152506200020260201b60201c565b6200012a6040518060400160405280600e81526020017f47617572616e672043686176616e0000000000000000000000000000000000008152506200020260201b60201c565b620001706040518060400160405280600f81526020017f53616e64656570204e61696c77616c00000000000000000000000000000000008152506200020260201b60201c565b620001b66040518060400160405280600981526020017f456c6f6e204d75736b00000000000000000000000000000000000000000000008152506200020260201b60201c565b620001fc6040518060400160405280600a81526020017f42696c6c204761746573000000000000000000000000000000000000000000008152506200020260201b60201c565b6200065e565b600260008154809291906200021790620002ba565b919050555060405180606001604052806002548152602001828152602001600081525060016000600254815260200190815260200160002060008201518160000155602082015181600101908162000270919062000577565b506040820151816002015590505050565b7f4e487b7100000000000000000000000000000000000000000000000000000000600052601160045260246000fd5b6000819050919050565b6000620002c782620002b0565b91507fffffffffffffffffffffffffffffffffffffffffffffffffffffffffffffffff8203620002fc57620002fb62000281565b5b600182019050919050565b600081519050919050565b7f4e487b7100000000000000000000000000000000000000000000000000000000600052604160045260246000fd5b7f4e487b7100000000000000000000000000000000000000000000000000000000600052602260045260246000fd5b600060028204905060018216806200038957607f821691505b6020821081036200039f576200039e62000341565b5b50919050565b60008190508160005260206000209050919050565b60006020601f8301049050919050565b600082821b905092915050565b600060088302620004097fffffffffffffffffffffffffffffffffffffffffffffffffffffffffffffffff82620003ca565b620004158683620003ca565b95508019841693508086168417925050509392505050565b6000819050919050565b600062000458620004526200044c84620002b0565b6200042d565b620002b0565b9050919050565b6000819050919050565b620004748362000437565b6200048c62000483826200045f565b848454620003d7565b825550505050565b600090565b620004a362000494565b620004b081848462000469565b505050565b5b81811015620004d857620004cc60008262000499565b600181019050620004b6565b5050565b601f8211156200052757620004f181620003a5565b620004fc84620003ba565b810160208510156200050c578190505b620005246200051b85620003ba565b830182620004b5565b50505b505050565b600082821c905092915050565b60006200054c600019846008026200052c565b1980831691505092915050565b600062000567838362000539565b9150826002028217905092915050565b620005828262000307565b67ffffffffffffffff8111156200059e576200059d62000312565b5b620005aa825462000370565b620005b7828285620004dc565b600060209050601f831160018114620005ef5760008415620005da578287015190505b620005e6858262000559565b86555062000656565b601f198416620005ff86620003a5565b60005b82811015620006295784890151825560018201915060208501945060208101905062000602565b8683101562000649578489015162000645601f89168262000539565b8355505b6001600288020188555050505b505050505050565b610bfe806200066e6000396000f3fe608060405234801561001057600080fd5b50600436106100625760003560e01c80630121b93f146100675780632d35a8a2146100835780633477ee2e146100a1578063462e91ec146100d357806395f85022146100ef578063a3ec138d14610121575b600080fd5b610081600480360381019061007c919061050f565b610151565b005b61008b610275565b604051610098919061054b565b60405180910390f35b6100bb60048036038101906100b6919061050f565b61027b565b6040516100ca939291906105f6565b60405180910390f35b6100ed60048036038101906100e89190610769565b61032d565b005b6101096004803603810190610104919061050f565b6103a8565b604051610118939291906105f6565b60405180910390f35b61013b60048036038101906101369190610810565b6104a5565b6040516101489190610858565b60405180910390f35b6000803373ffffffffffffffffffffffffffffffffffffffff1673ffffffffffffffffffffffffffffffffffffffff16815260200190815260200160002060009054906101000a900460ff16156101a757600080fd5b6000811180156101b957506002548111155b6101c257600080fd5b60016000803373ffffffffffffffffffffffffffffffffffffffff1673ffffffffffffffffffffffffffffffffffffffff16815260200190815260200160002060006101000a81548160ff021916908315150217905550600160008281526020019081526020016000206002016000815480929190610240906108a2565b9190505550807ffff3c900d938d21d0990d786e819f29b8d05c1ef587b462b939609625b684b1660405160405180910390a250565b60025481565b60016020528060005260406000206000915090508060000154908060010180546102a490610919565b80601f01602080910402602001604051908101604052809291908181526020018280546102d090610919565b801561031d5780601f106102f25761010080835404028352916020019161031d565b820191906000526020600020905b81548152906001019060200180831161030057829003601f168201915b5050505050908060020154905083565b60026000815480929190610340906108a2565b91905055506040518060600160405280600254815260200182815260200160008152506001600060025481526020019081526020016000206000820151816000015560208201518160010190816103979190610af6565b506040820151816002015590505050565b60006060600080841180156103bf57506002548411155b6103c857600080fd5b600160008581526020019081526020016000206000015460016000868152602001908152602001600020600101600160008781526020019081526020016000206002015481805461041890610919565b80601f016020809104026020016040519081016040528092919081815260200182805461044490610919565b80156104915780601f1061046657610100808354040283529160200191610491565b820191906000526020600020905b81548152906001019060200180831161047457829003601f168201915b505050505091509250925092509193909250565b60006020528060005260406000206000915054906101000a900460ff1681565b6000604051905090565b600080fd5b600080fd5b6000819050919050565b6104ec816104d9565b81146104f757600080fd5b50565b600081359050610509816104e3565b92915050565b600060208284031215610525576105246104cf565b5b6000610533848285016104fa565b91505092915050565b610545816104d9565b82525050565b6000602082019050610560600083018461053c565b92915050565b600081519050919050565b600082825260208201905092915050565b60005b838110156105a0578082015181840152602081019050610585565b60008484015250505050565b6000601f19601f8301169050919050565b60006105c882610566565b6105d28185610571565b93506105e2818560208601610582565b6105eb816105ac565b840191505092915050565b600060608201905061060b600083018661053c565b818103602083015261061d81856105bd565b905061062c604083018461053c565b949350505050565b600080fd5b600080fd5b7f4e487b7100000000000000000000000000000000000000000000000000000000600052604160045260246000fd5b610676826105ac565b810181811067ffffffffffffffff821117156106955761069461063e565b5b80604052505050565b60006106a86104c5565b90506106b4828261066d565b919050565b600067ffffffffffffffff8211156106d4576106d361063e565b5b6106dd826105ac565b9050602081019050919050565b82818337600083830152505050565b600061070c610707846106b9565b61069e565b90508281526020810184848401111561072857610727610639565b5b6107338482856106ea565b509392505050565b600082601f8301126107505761074f610634565b5b81356107608482602086016106f9565b91505092915050565b60006020828403121561077f5761077e6104cf565b5b600082013567ffffffffffffffff81111561079d5761079c6104d4565b5b6107a98482850161073b565b91505092915050565b600073ffffffffffffffffffffffffffffffffffffffff82169050919050565b60006107dd826107b2565b9050919050565b6107ed816107d2565b81146107f857600080fd5b50565b60008135905061080a816107e4565b92915050565b600060208284031215610826576108256104cf565b5b6000610834848285016107fb565b91505092915050565b60008115159050919050565b6108528161083d565b82525050565b600060208201905061086d6000830184610849565b92915050565b7f4e487b7100000000000000000000000000000000000000000000000000000000600052601160045260246000fd5b60006108ad826104d9565b91507fffffffffffffffffffffffffffffffffffffffffffffffffffffffffffffffff82036108df576108de610873565b5b600182019050919050565b7f4e487b7100000000000000000000000000000000000000000000000000000000600052602260045260246000fd5b6000600282049050600182168061093157607f821691505b602082108103610944576109436108ea565b5b50919050565b60008190508160005260206000209050919050565b60006020601f8301049050919050565b600082821b905092915050565b6000600883026109ac7fffffffffffffffffffffffffffffffffffffffffffffffffffffffffffffffff8261096f565b6109b6868361096f565b95508019841693508086168417925050509392505050565b6000819050919050565b60006109f36109ee6109e9846104d9565b6109ce565b6104d9565b9050919050565b6000819050919050565b610a0d836109d8565b610a21610a19826109fa565b84845461097c565b825550505050565b600090565b610a36610a29565b610a41818484610a04565b505050565b5b81811015610a6557610a5a600082610a2e565b600181019050610a47565b5050565b601f821115610aaa57610a7b8161094a565b610a848461095f565b81016020851015610a93578190505b610aa7610a9f8561095f565b830182610a46565b50505b505050565b600082821c905092915050565b6000610acd60001984600802610aaf565b1980831691505092915050565b6000610ae68383610abc565b9150826002028217905092915050565b610aff82610566565b67ffffffffffffffff811115610b1857610b1761063e565b5b610b228254610919565b610b2d828285610a69565b600060209050601f831160018114610b605760008415610b4e578287015190505b610b588582610ada565b865550610bc0565b601f198416610b6e8661094a565b60005b82811015610b9657848901518255600182019150602085019450602081019050610b71565b86831015610bb35784890151610baf601f891682610abc565b8355505b6001600288020188555050505b50505050505056fea2646970667358221220b6848c8fd9bf3d0757e3f01a1a3c8a6e32047dafb295f19919849b38d46c134764736f6c63430008110033",
  "immutableReferences": {},
  "source": "// SPDX-License-Identifier: UNLICENCED\r\npragma solidity >=0.4.22 <0.9.0;\r\n\r\ncontract contractVoting {\r\n    \r\n    struct Candidate {\r\n        uint id;\r\n        string name;\r\n        uint voteCount;\r\n    }\r\n\r\n    mapping(address => bool) public voters;\r\n\r\n    mapping(uint => Candidate) public candidates;\r\n    uint public candidatesCount;\r\n\r\n    event votedEvent (\r\n        uint indexed _candidateId\r\n    );\r\n\r\n    constructor () public {\r\n        addCandidate(\"Samarth Ghante\");\r\n        addCandidate(\"Kanishk Kumar\");\r\n        addCandidate(\"Shravya Bhandary\");\r\n        addCandidate(\"Gaurang Chavan\");\r\n        addCandidate(\"Sandeep Nailwal\");\r\n        addCandidate(\"Elon Musk\");\r\n        addCandidate(\"Bill Gates\");\r\n    }\r\n\r\n    function addCandidate (string memory _name) public {\r\n        candidatesCount ++;\r\n        candidates[candidatesCount] = Candidate(candidatesCount, _name, 0);\r\n    }\r\n\r\n    function vote (uint _candidateId) public {\r\n        require(!voters[msg.sender]);\r\n        require(_candidateId > 0 && _candidateId <= candidatesCount);\r\n        voters[msg.sender] = true;\r\n        candidates[_candidateId].voteCount ++;\r\n        emit votedEvent(_candidateId);\r\n    }\r\n\r\n    function getCandidateById(uint _candidateId) public view returns (uint, string memory, uint) {\r\n        require(_candidateId > 0 && _candidateId <= candidatesCount);\r\n        return (\r\n            candidates[_candidateId].id,\r\n            candidates[_candidateId].name,\r\n            candidates[_candidateId].voteCount\r\n        );\r\n    }\r\n}\r\n",
  "sourcePath": "C:\\Users\\A\\Desktop\\Web3\\contracts\\contractVoting.sol",
  "compiler": {
    "name": "solc",
    "version": "0.8.17+commit.8df45f5f.Emscripten.clang"
  },
  "schemaVersion": "3.4.16",
  "updatedAt": "2023-11-19T06:15:30.492Z",
  "networkType": "ethereum",
  "devdoc": {
    "kind": "dev",
    "methods": {},
    "version": 1
  },
  "userdoc": {
    "kind": "user",
    "methods": {},
    "version": 1
  }
}